{
  "_format": "hh-sol-artifact-1",
  "contractName": "AgentMarketplace",
  "sourceName": "contracts/AgentMarketplace.sol",
  "abi": [
    {
      "inputs": [],
      "name": "ReentrancyGuardReentrantCall",
      "type": "error"
    },
    {
      "anonymous": false,
      "inputs": [
        {
          "indexed": true,
          "internalType": "uint256",
          "name": "id",
          "type": "uint256"
        }
      ],
      "name": "OfferCancelled",
      "type": "event"
    },
    {
      "anonymous": false,
      "inputs": [
        {
          "indexed": true,
          "internalType": "uint256",
          "name": "id",
          "type": "uint256"
        },
        {
          "indexed": true,
          "internalType": "address",
          "name": "agent",
          "type": "address"
        },
        {
          "indexed": false,
          "internalType": "address",
          "name": "sellToken",
          "type": "address"
        },
        {
          "indexed": false,
          "internalType": "address",
          "name": "buyToken",
          "type": "address"
        },
        {
          "indexed": false,
          "internalType": "uint256",
          "name": "sellAmount",
          "type": "uint256"
        },
        {
          "indexed": false,
          "internalType": "uint256",
          "name": "buyAmount",
          "type": "uint256"
        }
      ],
      "name": "OfferCreated",
      "type": "event"
    },
    {
      "anonymous": false,
      "inputs": [
        {
          "indexed": true,
          "internalType": "uint256",
          "name": "id",
          "type": "uint256"
        },
        {
          "indexed": true,
          "internalType": "address",
          "name": "counterparty",
          "type": "address"
        }
      ],
      "name": "OfferSettled",
      "type": "event"
    },
    {
      "inputs": [
        {
          "internalType": "uint256",
          "name": "id",
          "type": "uint256"
        }
      ],
      "name": "cancelOffer",
      "outputs": [],
      "stateMutability": "nonpayable",
      "type": "function"
    },
    {
      "inputs": [
        {
          "internalType": "address",
          "name": "sellToken",
          "type": "address"
        },
        {
          "internalType": "address",
          "name": "buyToken",
          "type": "address"
        },
        {
          "internalType": "uint256",
          "name": "sellAmount",
          "type": "uint256"
        },
        {
          "internalType": "uint256",
          "name": "buyAmount",
          "type": "uint256"
        },
        {
          "internalType": "uint256",
          "name": "duration",
          "type": "uint256"
        }
      ],
      "name": "createOffer",
      "outputs": [
        {
          "internalType": "uint256",
          "name": "id",
          "type": "uint256"
        }
      ],
      "stateMutability": "nonpayable",
      "type": "function"
    },
    {
      "inputs": [
        {
          "internalType": "uint256",
          "name": "from",
          "type": "uint256"
        },
        {
          "internalType": "uint256",
          "name": "limit",
          "type": "uint256"
        }
      ],
      "name": "getOpenOffers",
      "outputs": [
        {
          "internalType": "uint256[]",
          "name": "ids",
          "type": "uint256[]"
        }
      ],
      "stateMutability": "view",
      "type": "function"
    },
    {
      "inputs": [
        {
          "internalType": "uint256",
          "name": "id",
          "type": "uint256"
        }
      ],
      "name": "matchOffer",
      "outputs": [],
      "stateMutability": "nonpayable",
      "type": "function"
    },
    {
      "inputs": [],
      "name": "offerCount",
      "outputs": [
        {
          "internalType": "uint256",
          "name": "",
          "type": "uint256"
        }
      ],
      "stateMutability": "view",
      "type": "function"
    },
    {
      "inputs": [
        {
          "internalType": "uint256",
          "name": "",
          "type": "uint256"
        }
      ],
      "name": "offers",
      "outputs": [
        {
          "internalType": "address",
          "name": "agent",
          "type": "address"
        },
        {
          "internalType": "address",
          "name": "sellToken",
          "type": "address"
        },
        {
          "internalType": "address",
          "name": "buyToken",
          "type": "address"
        },
        {
          "internalType": "uint256",
          "name": "sellAmount",
          "type": "uint256"
        },
        {
          "internalType": "uint256",
          "name": "buyAmount",
          "type": "uint256"
        },
        {
          "internalType": "address",
          "name": "counterparty",
          "type": "address"
        },
        {
          "internalType": "enum AgentMarketplace.Status",
          "name": "status",
          "type": "uint8"
        },
        {
          "internalType": "uint256",
          "name": "expiresAt",
          "type": "uint256"
        }
      ],
      "stateMutability": "view",
      "type": "function"
    },
    {
      "inputs": [
        {
          "internalType": "address",
          "name": "",
          "type": "address"
        }
      ],
      "name": "reputation",
      "outputs": [
        {
          "internalType": "uint256",
          "name": "",
          "type": "uint256"
        }
      ],
      "stateMutability": "view",
      "type": "function"
    }
  ],
  "bytecode": "0x608060405234801561001057600080fd5b50600161002f61002461003b60201b60201c565b61006660201b60201c565b60000181905550610070565b60007f9b779b17422d0df92223018b32b4d1fa46e071723d6817e2486d003becc55f0060001b905090565b6000819050919050565b6116408061007f6000396000f3fe608060405234801561001057600080fd5b506004361061007d5760003560e01c80638a72ea6a1161005b5780638a72ea6a14610100578063b9f7945114610137578063e32b9cb614610167578063ef706adf146101835761007d565b80631115c24d146100825780633f10abc9146100a05780635e39eec1146100d0575b600080fd5b61008a61019f565b6040516100979190610eff565b60405180910390f35b6100ba60048036038101906100b59190610fa9565b6101a5565b6040516100c79190610eff565b60405180910390f35b6100ea60048036038101906100e59190611024565b610564565b6040516100f79190611122565b60405180910390f35b61011a60048036038101906101159190611144565b610726565b60405161012e9897969594939291906111f7565b60405180910390f35b610151600480360381019061014c9190611275565b6107fb565b60405161015e9190610eff565b60405180910390f35b610181600480360381019061017c9190611144565b610813565b005b61019d60048036038101906101989190611144565b610c16565b005b60015481565b60006101af610e14565b6000841180156101bf5750600083115b80156101f757508473ffffffffffffffffffffffffffffffffffffffff168673ffffffffffffffffffffffffffffffffffffffff1614155b610236576040517f08c379a000000000000000000000000000000000000000000000000000000000815260040161022d906112ff565b60405180910390fd5b8573ffffffffffffffffffffffffffffffffffffffff166323b872dd3330876040518463ffffffff1660e01b81526004016102739392919061131f565b6020604051808303816000875af1158015610292573d6000803e3d6000fd5b505050506040513d601f19601f820116820180604052508101906102b6919061138e565b506001600081546102c6906113ea565b91905081905590506040518061010001604052803373ffffffffffffffffffffffffffffffffffffffff1681526020018773ffffffffffffffffffffffffffffffffffffffff1681526020018673ffffffffffffffffffffffffffffffffffffffff168152602001858152602001848152602001600073ffffffffffffffffffffffffffffffffffffffff1681526020016000600281111561036b5761036a611180565b5b8152602001834261037c9190611432565b81525060008083815260200190815260200160002060008201518160000160006101000a81548173ffffffffffffffffffffffffffffffffffffffff021916908373ffffffffffffffffffffffffffffffffffffffff16021790555060208201518160010160006101000a81548173ffffffffffffffffffffffffffffffffffffffff021916908373ffffffffffffffffffffffffffffffffffffffff16021790555060408201518160020160006101000a81548173ffffffffffffffffffffffffffffffffffffffff021916908373ffffffffffffffffffffffffffffffffffffffff160217905550606082015181600301556080820151816004015560a08201518160050160006101000a81548173ffffffffffffffffffffffffffffffffffffffff021916908373ffffffffffffffffffffffffffffffffffffffff16021790555060c08201518160050160146101000a81548160ff021916908360028111156104ec576104eb611180565b5b021790555060e082015181600601559050503373ffffffffffffffffffffffffffffffffffffffff16817feeca584035fa6628470e94bb28249556557da8e404821d3ea0bb40a1eec57c308888888860405161054b9493929190611466565b60405180910390a361055b610e37565b95945050505050565b60606000808367ffffffffffffffff811115610583576105826114ab565b5b6040519080825280602002602001820160405280156105b15781602001602082028036833780820191505090505b50905060008590505b60015481111580156105cb57508483105b1561067f57600060028111156105e4576105e3611180565b5b60008083815260200190815260200160002060050160149054906101000a900460ff16600281111561061957610618611180565b5b14801561063a57506000808281526020019081526020016000206006015442105b1561066c578082848061064c906113ea565b95508151811061065f5761065e6114da565b5b6020026020010181815250505b8080610677906113ea565b9150506105ba565b508167ffffffffffffffff81111561069a576106996114ab565b5b6040519080825280602002602001820160405280156106c85781602001602082028036833780820191505090505b50925060005b8281101561071d578181815181106106e9576106e86114da565b5b6020026020010151848281518110610704576107036114da565b5b60200260200101818152505080806001019150506106ce565b50505092915050565b60006020528060005260406000206000915090508060000160009054906101000a900473ffffffffffffffffffffffffffffffffffffffff16908060010160009054906101000a900473ffffffffffffffffffffffffffffffffffffffff16908060020160009054906101000a900473ffffffffffffffffffffffffffffffffffffffff16908060030154908060040154908060050160009054906101000a900473ffffffffffffffffffffffffffffffffffffffff16908060050160149054906101000a900460ff16908060060154905088565b60026020528060005260406000206000915090505481565b61081b610e14565b600080600083815260200190815260200160002090506000600281111561084557610844611180565b5b8160050160149054906101000a900460ff16600281111561086957610868611180565b5b1480156108795750806006015442105b80156108d557508060000160009054906101000a900473ffffffffffffffffffffffffffffffffffffffff1673ffffffffffffffffffffffffffffffffffffffff163373ffffffffffffffffffffffffffffffffffffffff1614155b610914576040517f08c379a000000000000000000000000000000000000000000000000000000000815260040161090b90611555565b60405180910390fd5b60018160050160146101000a81548160ff0219169083600281111561093c5761093b611180565b5b0217905550338160050160006101000a81548173ffffffffffffffffffffffffffffffffffffffff021916908373ffffffffffffffffffffffffffffffffffffffff1602179055508060020160009054906101000a900473ffffffffffffffffffffffffffffffffffffffff1673ffffffffffffffffffffffffffffffffffffffff166323b872dd338360000160009054906101000a900473ffffffffffffffffffffffffffffffffffffffff1684600401546040518463ffffffff1660e01b8152600401610a0d9392919061131f565b6020604051808303816000875af1158015610a2c573d6000803e3d6000fd5b505050506040513d601f19601f82011682018060405250810190610a50919061138e565b508060010160009054906101000a900473ffffffffffffffffffffffffffffffffffffffff1673ffffffffffffffffffffffffffffffffffffffff1663a9059cbb3383600301546040518363ffffffff1660e01b8152600401610ab4929190611575565b6020604051808303816000875af1158015610ad3573d6000803e3d6000fd5b505050506040513d601f19601f82011682018060405250810190610af7919061138e565b50600260008260000160009054906101000a900473ffffffffffffffffffffffffffffffffffffffff1673ffffffffffffffffffffffffffffffffffffffff1673ffffffffffffffffffffffffffffffffffffffff1681526020019081526020016000206000815480929190610b6c906113ea565b9190505550600260003373ffffffffffffffffffffffffffffffffffffffff1673ffffffffffffffffffffffffffffffffffffffff1681526020019081526020016000206000815480929190610bc1906113ea565b91905055503373ffffffffffffffffffffffffffffffffffffffff16827f9bcb21656bdeb7fd5722f4147b2f2527a1450481c17bf9321ff70e9a0b8e836e60405160405180910390a350610c13610e37565b50565b610c1e610e14565b600080600083815260200190815260200160002090503373ffffffffffffffffffffffffffffffffffffffff168160000160009054906101000a900473ffffffffffffffffffffffffffffffffffffffff1673ffffffffffffffffffffffffffffffffffffffff16148015610cc8575060006002811115610ca257610ca1611180565b5b8160050160149054906101000a900460ff166002811115610cc657610cc5611180565b5b145b610d07576040517f08c379a0000000000000000000000000000000000000000000000000000000008152600401610cfe906115ea565b60405180910390fd5b60028160050160146101000a81548160ff02191690836002811115610d2f57610d2e611180565b5b02179055508060010160009054906101000a900473ffffffffffffffffffffffffffffffffffffffff1673ffffffffffffffffffffffffffffffffffffffff1663a9059cbb3383600301546040518363ffffffff1660e01b8152600401610d97929190611575565b6020604051808303816000875af1158015610db6573d6000803e3d6000fd5b505050506040513d601f19601f82011682018060405250810190610dda919061138e565b50817fc28b4aed030bfacc245c0501326e1beb8c0ef0d60e4edc21067fdeb52da2a7aa60405160405180910390a250610e11610e37565b50565b610e1c610e52565b6002610e2e610e29610e93565b610ebe565b60000181905550565b6001610e49610e44610e93565b610ebe565b60000181905550565b610e5a610ec8565b15610e91576040517f3ee5aeb500000000000000000000000000000000000000000000000000000000815260040160405180910390fd5b565b60007f9b779b17422d0df92223018b32b4d1fa46e071723d6817e2486d003becc55f0060001b905090565b6000819050919050565b60006002610edc610ed7610e93565b610ebe565b6000015414905090565b6000819050919050565b610ef981610ee6565b82525050565b6000602082019050610f146000830184610ef0565b92915050565b600080fd5b600073ffffffffffffffffffffffffffffffffffffffff82169050919050565b6000610f4a82610f1f565b9050919050565b610f5a81610f3f565b8114610f6557600080fd5b50565b600081359050610f7781610f51565b92915050565b610f8681610ee6565b8114610f9157600080fd5b50565b600081359050610fa381610f7d565b92915050565b600080600080600060a08688031215610fc557610fc4610f1a565b5b6000610fd388828901610f68565b9550506020610fe488828901610f68565b9450506040610ff588828901610f94565b935050606061100688828901610f94565b925050608061101788828901610f94565b9150509295509295909350565b6000806040838503121561103b5761103a610f1a565b5b600061104985828601610f94565b925050602061105a85828601610f94565b9150509250929050565b600081519050919050565b600082825260208201905092915050565b6000819050602082019050919050565b61109981610ee6565b82525050565b60006110ab8383611090565b60208301905092915050565b6000602082019050919050565b60006110cf82611064565b6110d9818561106f565b93506110e483611080565b8060005b838110156111155781516110fc888261109f565b9750611107836110b7565b9250506001810190506110e8565b5085935050505092915050565b6000602082019050818103600083015261113c81846110c4565b905092915050565b60006020828403121561115a57611159610f1a565b5b600061116884828501610f94565b91505092915050565b61117a81610f3f565b82525050565b7f4e487b7100000000000000000000000000000000000000000000000000000000600052602160045260246000fd5b600381106111c0576111bf611180565b5b50565b60008190506111d1826111af565b919050565b60006111e1826111c3565b9050919050565b6111f1816111d6565b82525050565b60006101008201905061120d600083018b611171565b61121a602083018a611171565b6112276040830189611171565b6112346060830188610ef0565b6112416080830187610ef0565b61124e60a0830186611171565b61125b60c08301856111e8565b61126860e0830184610ef0565b9998505050505050505050565b60006020828403121561128b5761128a610f1a565b5b600061129984828501610f68565b91505092915050565b600082825260208201905092915050565b7f496e76616c696420706172616d73000000000000000000000000000000000000600082015250565b60006112e9600e836112a2565b91506112f4826112b3565b602082019050919050565b60006020820190508181036000830152611318816112dc565b9050919050565b60006060820190506113346000830186611171565b6113416020830185611171565b61134e6040830184610ef0565b949350505050565b60008115159050919050565b61136b81611356565b811461137657600080fd5b50565b60008151905061138881611362565b92915050565b6000602082840312156113a4576113a3610f1a565b5b60006113b284828501611379565b91505092915050565b7f4e487b7100000000000000000000000000000000000000000000000000000000600052601160045260246000fd5b60006113f582610ee6565b91507fffffffffffffffffffffffffffffffffffffffffffffffffffffffffffffffff8203611427576114266113bb565b5b600182019050919050565b600061143d82610ee6565b915061144883610ee6565b92508282019050808211156114605761145f6113bb565b5b92915050565b600060808201905061147b6000830187611171565b6114886020830186611171565b6114956040830185610ef0565b6114a26060830184610ef0565b95945050505050565b7f4e487b7100000000000000000000000000000000000000000000000000000000600052604160045260246000fd5b7f4e487b7100000000000000000000000000000000000000000000000000000000600052603260045260246000fd5b7f43616e6e6f74206d617463680000000000000000000000000000000000000000600082015250565b600061153f600c836112a2565b915061154a82611509565b602082019050919050565b6000602082019050818103600083015261156e81611532565b9050919050565b600060408201905061158a6000830185611171565b6115976020830184610ef0565b9392505050565b7f43616e6e6f742063616e63656c00000000000000000000000000000000000000600082015250565b60006115d4600d836112a2565b91506115df8261159e565b602082019050919050565b60006020820190508181036000830152611603816115c7565b905091905056fea264697066735822122016e4c0ef4d56f95fc16736c1812141690ef99a41c7563c34c32ce9813722f1d764736f6c63430008180033",
  "linkReferences": {},
  "deployedLinkReferences": {}
}